:020000040800F2
:10000000C806002081100008C5040008C7040008C5
:10001000CB040008CF040008D3040008000000004F
:10002000000000000000000000000000D7040008ED
:10003000D904000800000000DB0400089910000843
:100040009B1000089B1000089B1000089B100008E4
:100050009B1000089B1000089B1000089B100008D4
:100060009B1000089B1000089B1000089B100008C4
:100070009B1000089B1000089B1000089B100008B4
:100080009B1000089B1000089B1000089B100008A4
:100090009B1000089B1000089B1000089B10000894
:1000A0009B1000089B1000089B1000089B10000884
:1000B00051070008571000089B1000089B1000080B
:1000C0009B1000089B1000089B1000089B10000864
:1000D0009B1000089B1000089B1000089B10000854
:1000E0009B1000089B1000089B10000800F002F80D
:1000F00000F03AF80AA090E8000C82448344AAF188
:100100000107DA4501D100F02FF8AFF2090EBAE885
:100110000F0013F0010F18BFFB1A43F0010318473B
:10012000842E0000A42E0000103A24BF78C878C1A5
:10013000FAD8520724BF30C830C144BF04680C60ED
:10014000704700000023002400250026103A28BF35
:1001500078C1FBD8520728BF30C148BF0B60704739
:100160001FB51FBD10B510BD02F019FB1146FFF7FA
:10017000F7FF00F068F902F037FB03B4FFF7F2FF76
:1001800003BC02F03FFB0000BF480068B8B1BF48A5
:100190000078012803D11420BD49087012E0BB4843
:1001A0000078022803D11E20B94908700AE0B74838
:1001B0000078032806D14620B549087002E00020E7
:1001C000B34908707047B048006880B1B148006812
:1001D000401CB049086008460068B0F5FA7F06D3B5
:1001E00000200860A8480068401EA74908607047C2
:1001F000A9480078322824D10020A7490870A748D0
:100200000078401CA549087008460078012803D1F1
:100210003C209D4908600AE0A0480078022803D1EC
:1002200078209949086002E00020974908609B48BF
:100230000078022802DD00209849087000209549C6
:10024000086095480078332808D10020924908704A
:10025000924908708C4908608E4908608E48007881
:1002600031280DD100208C49087088480078401C46
:100270008649087008460078032801DD01200870CF
:100280008148006868B38148007801280AD10020BD
:100290008349086001208349C1F8B80180490831C9
:1002A000086027E07948007802280BD101207C49BA
:1002B000086000207B49C1F8B80101207849083165
:1002C000086017E071480078032813D101207449B1
:1002D00008607449C1F8B80100207149083108600C
:1002E00008E001206E4908606E49C1F8B8016C4908
:1002F00008310860704710B56748007834280DD180
:1003000000206549087068480078401C66490870FC
:1003100008460078012801DD002008706248007856
:1003200010B1012866D13FE0BF20604908706048E5
:1003300056490978405C5D494870BF208870FF20AD
:10034000C870514800684FF47A71B0FBF1F0584919
:10035000085C564908714C4800684FF47A71B0FB4C
:10036000F1F201FB12006421B0FBF1F05049085C8E
:100370004E494871444800686421B0FBF1F201FB2A
:1003800012000A21B0FBF1F04949085C4749887125
:100390003D4800680A21B0FBF1F201FB120044491C
:1003A000085C4249C87129E0BF20404908704048B4
:1003B00000794870BF208870FF20C87008713D48E0
:1003C000006802F01FFD0A21B0FBF1F03849085C1B
:1003D000364948713748006802F014FD0A21B0FB25
:1003E000F1F201FB12003249085C30498871C620E5
:1003F000C87103E000202C49087000BF00BF10BD89
:1004000008B501211D2001F0E5F901212A4800F07D
:10041000F6FF0121294800F0F2FF0121084601F012
:10042000D9F90121254800F0EAFF1820ADF80000B5
:1004300003208DF8020010208DF803006946204843
:1004400000F00CFF08BD00BF02F036F902F09EF983
:10045000FFF7D6FF00F0CAF900F030F941F61F416E
:10046000132000F047F900F0E0FA00F0B3FD0AE0D5
:10047000FFF78AFEFFF7BCFE00F02BFDFFF73BFF06
:10048000322002F056F9F3E70400002000000020BB
:100490004900002008000020250000200D00002059
:1004A000B4012242000022420C000020390000204A
:1004B0002900002044000020000430000002300029
:1004C000000C0140704700BFFEE700BFFEE700BF21
:1004D000FEE700BFFEE77047704770470CB500208D
:1004E000019000906C48006840F480306A490860D0
:1004F00000BF6948006800F4003000900198401C7B
:100500000190009818B90198B0F5A06FF1D1624838
:10051000006800F4003010B10120009001E00020DC
:1005200000900098012843D15C48006840F010001A
:100530005A4908600846006820F003000860084631
:10054000006840F002000860534840685249486023
:100550000846406848600846406840F4806048604B
:100560000846406820F47C1048600846406840F423
:10057000E81048600846006840F08070086000BFDE
:100580004548006800F000700028F9D042484068F3
:1005900020F00300404948600846406840F00200EF
:1005A000486000BF3C48406800F00C000828F9D1C2
:1005B0000CBD10B5FFF792FF10BD10B536480068AE
:1005C00040F001003449086008464068344908405A
:1005D0003149486008460068324908402E490860A1
:1005E0000846006820F4802008600846406820F42F
:1005F000FE0048604FF41F008860FFF7DAFF4FF0FD
:1006000000602949086010BD10B5002100200022BB
:10061000214B5B6803F00C0121B1042906D00829A5
:1006200028D107E0214B224C236027E01F4B204CB0
:10063000236023E0184B5B6803F47010164B5B6873
:1006400003F48032022303EB904022B9194B434359
:10065000174C23600DE0104B5B6803F4003323B1AB
:10066000144B4343124C236003E0104B4343104CA4
:10067000236003E00D4B0E4C236000BF00BF064B10
:100680005B68C3F303130C4CE15C094B1B68CB4064
:10069000074C236010BD0000001002400020024003
:1006A0000000FFF8FFFFF6FE08ED00E000127A0000
:1006B0001000002000093D001400002008B50121B1
:1006C000102001F087F84FF46040ADF800000320DF
:1006D0008DF8020010208DF803006946044800F0F0
:1006E000BDFD4FF46041024800F065FE08BD00000A
:1006F000001001407FB505460C460121084601F077
:1007000076F8ADF80850ADF804400020ADF80A00C6
:10071000ADF8060001A94FF0804001F093F90122E5
:100720001146900701F005FD1C208DF80000002007
:100730008DF8010003208DF8020001208DF80300E0
:10074000684600F0C2FC0121880701F0D7FC7FBD9C
:1007500010B50121880701F09AFFA0B10121880797
:1007600001F0A6FFFFF72FFD00F0A4F91D48007867
:10077000401C1C490870084600780A2803DB00204A
:10078000087000F046F810BD7FB505460C46012103
:10079000022001F02CF8ADF80850ADF8044000201C
:1007A000ADF80A00ADF8060001A90F4801F04AF9BA
:1007B000012211460C4801F0BCFC1D208DF8000000
:1007C00000208DF8010003208DF8020001208DF833
:1007D0000300684600F079FC0121034801F08EFC1B
:1007E0007FBD0000240000200004004008B5012166
:1007F000042000F0EFFFF020ADF8000003208DF89A
:10080000020048208DF803006946554800F026FD97
:1008100008BD10B55348007830B1012820D0022817
:100820003AD0032878D166E010214D4800F0A9FDA8
:1008300070B120214A4800F0A4FD48B14021484849
:1008400000F09FFD20B18021454800F09AFD18B9C5
:1008500001204449087002E00020424908707CE011
:1008600010213F4800F08DFD70B120213C4800F080
:1008700088FD48B140213A4800F083FD20B1802135
:10088000374800F07EFD18B902203649087002E0B2
:1008900000203449087060E01021314800F071FDFB
:1008A00018B93120304908701DE020212C4800F093
:1008B00068FD18B932202C49087014E040212848FE
:1008C00000F05FFD18B93320274908700BE0802144
:1008D000234800F056FD18B934202349087002E07F
:1008E0000020204908701F480078022802D1032008
:1008F0001C49087031E01D48007870B11B48007831
:10090000401C1A49087008460078052820DB0020A2
:100910000870144908701BE01BE01021104800F01B
:1009200030FD90B120210E4800F02BFD68B1402130
:100930000B4800F026FD40B18021094800F021FD60
:1009400018B100200749087002E00320054908702B
:1009500003E000200349087000BF00BF10BD000085
:10096000000801402600002025000020270000206C
:1009700000F0010119B10121DD4A116002E00021FE
:10098000DB4A116000F0020121B10121D84A083A86
:10099000116003E00021D64A083A116000F004011A
:1009A00021B10121D24A183A116003E00021D04A56
:1009B000183A116000F0080121B10121CC4A103A27
:1009C000116003E00021CA4A103A116000F01001E2
:1009D00021B10121C64A0C3A116003E00021C44A4A
:1009E0000C3A116000F0200121B10121C04A121F10
:1009F000116003E00021BE4A121F116000F04001A7
:100A000019B10121BB4A116002E00021B94A11600D
:100A100000F0800121B10121B54A143A116003E0D0
:100A20000021B34A143A1160704708B5012108202B
:100A300000F0D0FEFB20ADF8000003208DF802008E
:100A400010208DF803006946AB4800F007FCFB213D
:100A5000A94800F0B0FC0121082000F0BBFE4FF4D3
:100A60007F40ADF8000003208DF8020010208DF8C3
:100A700003006946A04800F0F1FB4FF47F419E4817
:100A800000F099FC0121042000F0A4FE4FF48060E6
:100A9000ADF8000003208DF8020010208DF803004F
:100AA0006946964800F0DAFB4FF48061934800F005
:100AB00082FC08BD00B500208D49243908609049AA
:100AC000C1F884018A49091D086089490C31086010
:100AD000091F0860864918310860091F0860091F4E
:100AE00008608849884A1278885CFFF741FF864889
:100AF000007808287ED2DFE800F0041D37516B87AC
:100B0000A1BB01207A492439086000207C49C1F842
:100B100084017749091D086075490C310860091F77
:100B20000860734918310860091F08607449C1F8EA
:100B3000B401CFE000206E492439086001207049DB
:100B4000C1F8840100206A49091D086068490C3118
:100B50000860091F0860664918310860091F0860AD
:100B60006749C1F8B401B5E0002061492439086043
:100B70006349C1F8840101205D49091D0860002016
:100B80005B490C310860091F086059491831086039
:100B9000091F08605A49C1F8B4019BE0002054497C
:100BA000243908605649C1F884015149091D08607B
:100BB00001204F490C3108600020091F08604C4992
:100BC00018310860091F08604D49C1F8B40181E07F
:100BD00000204749243908604949C1F88401444943
:100BE000091D086042490C3108600120091F086096
:100BF000002000E055E03E4918310860091F0860F8
:100C00003F49C1F8B40165E0002039492439086042
:100C10003B49C1F884013649091D086034490C314B
:100C20000860091F08600120314918310860002060
:100C3000091F08603249C1F8B4014BE000202C497B
:100C4000243908602E49C1F884012949091D08602A
:100C500027490C310860091F0860254918310860D0
:100C60000120091F086000202549C1F8B40131E0C6
:100C700000201F49243908602149C1F884011C491A
:100C8000091D08601A490C310860091F08601849DD
:100C900018310860091F086001201949C1F8B40122
:100CA00018E000201249243908601549C1F8840170
:100CB0000F49091D08600E490C310860091F0860C2
:100CC0000B4918310860091F0860091F08600E49A8
:100CD000087000BF00BF0C480078401C0A4908702B
:100CE00008460078072801DD0020087000BD0000DC
:100CF000A4812142A8012142000C014000080140CA
:100D000000802142390000204100002008B5012167
:100D1000042000F05FFD0120ADF8000048208DF8B0
:100D200003006946A44800F099FA08BD08B50121FE
:100D3000042000F04FFD0120ADF8000003208DF8E5
:100D4000020010208DF8030069469B4800F086FAE7
:100D500008BD10B5FFF7EAFF0121974800F02DFB11
:100D600040F2EE2001F0C1FC0121934800F023FB8A
:100D70000F2001F0BAFC10BD10B50024FFF7C6FF2C
:100D800004E0601CC4B2012001F0AFFC01218A48DC
:100D900000F0F7FA08B1C82CF3DBC82C01DB012006
:100DA00010BD002404E0601CC4B2012001F09DFCD1
:100DB0000121814800F0E5FA08B9F02CF3DBF02CB2
:100DC00001DB0120ECE70020EAE710B5FFF7AEFFFA
:100DD0000121794800F0F1FA022001F086FC01219E
:100DE000754800F0E8FAFFF791FF0C2001F07DFC58
:100DF0000121714800F0C5FA08B1012400E0002487
:100E0000322001F072FC204610BD70B5002601258D
:100E100008E0FFF7DAFF0446E00140EA6600C6B2E8
:100E2000681CC5B2082DF4DD304670BD70B50446AF
:100E3000FFF77CFF012522E004F00106641076B183
:100E400001215D4800F0B9FA022001F04EFC0121B9
:100E5000594800F0B0FA3C2001F047FC0DE00121B8
:100E6000554800F0AAFA3C2001F03FFC012152480D
:100E700000F0A1FA022001F038FC681CC5B2082D70
:100E8000DADD70BD10B5FFF764FFFFF775FFCC200A
:100E9000FFF7CCFF4420FFF7C9FF10BD08B50121C3
:100EA000082000F097FC0120ADF8000010208DF81C
:100EB000030003208DF802006946404800F0CEF997
:100EC00001213E4800F077FAFFF743FFFFF754FF98
:100ED00008BD2DE9F04786B04FF0000A3848007889
:100EE000401C37490870084600780A2861DB00205A
:100EF0000870FFF7C7FFFFF72CFFFFF73DFFCC207F
:100F0000FFF794FFBE20FFF791FFFFF77EFF8146BA
:100F1000FFF77BFF044604F0F000C0B9484601F03B
:100F20006AFD0022274BCDE9020101F077FD05465D
:100F30000E46200101F048FD2A463346CDE9040162
:100F400001F09AFC074601F065FC824624E0E0438C
:100F5000C4B26FEA0900401C00F0FF09484601F0E6
:100F60004AFD07460022174B01F058FD05460E4684
:100F7000200101F029FD2A463346CDE9000101F0A8
:100F80007BFC0022104BCDE9020101F047FDCDE9C9
:100F9000040101F03FFC82460021504601F0D1FFE0
:100FA00007D20A49504601F04DFF02D20848C0F866
:100FB00000A006B0BDE8F08700080140000C014029
:100FC000480000200000B03F0000F0BF0000484291
:100FD0004400002008B54FF4E1610120FFF7D4FB85
:100FE0000121042000F0F6FB0C20ADF800000320E6
:100FF0008DF8020014208DF8030069461C4800F0AB
:101000002DF90C211A4800F0D6F908BD10B5194881
:101010000078401C1749087008460078164909787E
:10102000884203D10421124800F0C5F91148007824
:1010300064280FDB00200F4908700F480078002853
:1010400004DD04210A4800F0B8F903E0042108484F
:1010500000F0B1F910BD10B50121084801F017FBEF
:1010600028B10121054801F023FBFFF7CFFF10BD98
:10107000000801404A000020490000200004004010
:101080000948804709480047FEE7FEE7FEE7FEE71C
:10109000FEE7FEE7FEE7FEE7FEE7FEE70448054958
:1010A000054A064B70470000BB050008ED0000082C
:1010B000C8000020C8060020C8020020C802002086
:1010C00031490143314A1160704770B50021002356
:1010D0000F22C47804B32D4C246804F4E064C4F5F2
:1010E000E064210AC1F10403CA40447804FA03F120
:1010F0008478144021430901254C0678A1550478D1
:1011000004F01F050124AC4005786D11AD0005F118
:10111000E025C5F8004109E0047804F01F0501242A
:10112000AC401C4D0678761145F8264070BD1A4A31
:101130000A400243154B1B1F1A60704739B1134A0E
:10114000121D12680243114B1B1D1A6006E00F4A64
:10115000121D126882430D4B1B1D1A607047042834
:1011600008D14FF0E021096941F004014FF0E0227D
:10117000116107E04FF0E021096921F004014FF00F
:10118000E0221161704700000000FA050CED00E05C
:1011900000E400E080E100E080FFFF1F10B504469E
:1011A000CC48844208D10121042000F02DFB00210D
:1011B000042000F029FB46E0C748844208D1012101
:1011C000082000F021FB0021082000F01DFB3AE080
:1011D000C248844208D10121102000F015FB0021F3
:1011E000102000F011FB2EE0BD48844208D10121FF
:1011F000202000F009FB0021202000F005FB22E068
:10120000B848844208D10121402000F0FDFA0021B5
:10121000402000F0F9FA16E0B348844208D10121D9
:10122000802000F0F1FA0021802000F0EDFA0AE0C1
:10123000AE48844207D10121801500F0E5FA002173
:10124000A01500F0E1FA10BD10B50121084600F02C
:10125000DBFA0021012000F0D7FA10BD2DE9F041A2
:10126000024600250026002000230024002791F8D4
:1012700003C00CF00F0591F803C00CF0100CBCF18A
:10128000000F03D091F802C04CEA050591F800C0A8
:10129000BCF1000F31D0146800202BE04FF0010C9E
:1012A0000CFA00F3B1F800C00CEA03069E4220D10C
:1012B00083004FF00F0C0CFA03F7BC4305FA03FC54
:1012C0004CEA040491F803C0BCF1280F06D14FF09A
:1012D000010C0CFA00FCC2F814C00AE091F803C03B
:1012E000BCF1480F05D14FF0010C0CFA00FCC2F81C
:1012F00010C0401C0828D1D31460B1F800C0BCF164
:10130000FF0F34DD546800202EE000F1080C4FF090
:10131000010808FA0CF3B1F800C00CEA03069E427B
:1013200021D183004FF00F0C0CFA03F7BC4305FAF0
:1013300003FC4CEA040491F803C0BCF1280F05D16A
:1013400000F1080C08FA0CF8C2F8148091F803C0F8
:10135000BCF1480F07D100F1080C4FF0010808FA62
:101360000CF8C2F81080401C0828CED35460BDE8A9
:10137000F0814FF6FF710180022181700421C1705C
:1013800070470246002093680B400BB1012000E03B
:10139000002070470146886880B2704702460020EE
:1013A000D3680B400BB1012000E0002070470146DC
:1013B000C86880B2704701617047416170470AB1E7
:1013C000016100E041617047C16070474FF48032B5
:1013D0000A43826181618261826982697047024643
:1013E0000020434B18684FF68073184040EA021003
:1013F00008433F4B186070473E49C8617047F0B5DD
:101400000A46002300240021002500F00046B6F122
:10141000004F02D1364EF16901E0354E7168C0F3DC
:10142000034583B200F44016B6F5401F08D121F001
:1014300070612F4E766826F070662D4F7E6012E048
:1014400000F48016B6F5801F06D1032606FA05F4CF
:10145000A14341F0706106E0460D360103FA06F63D
:10146000B14341F0706122B1460D360103FA06F630
:10147000314300F00046B6F1004F02D11C4EF1613D
:1014800001E01B4E7160F0BD30B500228B071C0FD0
:101490000F2303FA04F2164B08338C1053F8243050
:1014A0009343134C08348D1044F8253023468C1098
:1014B00053F824308C07240F00FA04F423430C4C17
:1014C00008348D1044F8253030BD0A49DC310860FD
:1014D0007047000000080140000C0140001001406E
:1014E0000014014000180140001C01400020014090
:1014F0000000014000002042DF48006840F0010089
:10150000DD49086008464068DC490840DA4948601F
:1015100008460068DA490840D7490860084600686C
:1015200020F4802008600846406820F4FE004860EF
:101530004FF41F0088607047CF49096821F480315B
:10154000CD4A11601146096821F480211160B0F57F
:10155000803F03D0B0F5802F0ED106E0C649096860
:1015600041F48031C44A116007E0C349096841F47D
:10157000A021C14A116000E000BF00BF704710B554
:1015800001460022002300204A11012A02D1BA4C50
:10159000236806E0022A02D1B74C236A01E0B64C68
:1015A000636A01F01F02012494401C400CB1012029
:1015B00000E0002010BD38B5002000900024002578
:1015C00000BF3120FFF7DBFF05460098401C00906C
:1015D0000098B0F5A06F01D0002DF2D03120FFF7B8
:1015E000CEFF08B1012400E00024204638BD0146AA
:1015F0000020A14A106820F0F80040EAC100106005
:101600007047A04908607047024600209A4B58680E
:1016100020F47C1042EA01031843974B586070474E
:1016200098490866704701460020934A506820F0A8
:1016300003000843506070478F48406800F00C007A
:101640007047014600208C4A506820F0F0000843A3
:101650005060704701460020874A506820F4E060DF
:1016600008435060704701460020834A506820F4C8
:10167000605040EAC1005060704729B17E4A527AFA
:1016800002437D4B5A7204E07B4A527A82437A4B82
:101690005A7270477B49D831086070470146002074
:1016A000754A506820F4404008435060704700215C
:1016B000714A20321170704A82F82010012802D03D
:1016C00004280AD104E001216B4A2032117005E0A0
:1016D0000521694A2032117000E000BF00BF704749
:1016E0006949086070476449096A0143624A1162A6
:1016F0007047654944390860704730B500210022C1
:10170000002400235C4D6D6805F00C0121B1042913
:1017100005D0082923D105E05C4D056022E05B4D32
:1017200005601FE0544D6D6805F47012524D6D68F0
:1017300005F48034022505EB92421CB9544D554303
:1017400005600BE04C4D6D6805F400351DB1504D42
:101750005543056002E04D4D5543056002E04B4D99
:10176000056000BF00BF444D6D6805F0F001090938
:10177000484D6B5C0568DD4045603F4D6D6805F484
:10178000E061090A434D6B5C4568DD4085603A4D78
:101790006D6805F46051C90A3E4D6B5C4568DD40DB
:1017A000C560354D6D6805F44041890B3A4D6B5C61
:1017B000C568B5FBF3F5056130BD29B12E4A526904
:1017C00002432D4B5A6104E02B4A526982432A4B53
:1017D0005A61704729B1284A92690243264B9A619F
:1017E00004E0254A92698243234B9A61704729B1EC
:1017F000214AD2690243204BDA6104E01E4AD269D1
:1018000082431D4BDA61704729B11B4AD2680243FB
:10181000194BDA6004E0184AD2688243164BDA604A
:10182000704729B1144A12690243134B1A6104E04C
:10183000114A12698243104B1A61704712494039AC
:10184000086070470F49C86470470B49C8717047FA
:101850000948406A40F08070074948627047014675
:101860000020054A92680A400AB1012000E00020E9
:101870007047014988727047001002400000FFF86D
:10188000FFFFF6FE000042428004424200127A004E
:1018900000093D004B0000205B00002010B504460D
:1018A000FE48844208D10121C014FFF7ADFF00219A
:1018B000E014FFF7A9FFC4E0B4F1804F08D1012183
:1018C0000846FFF7AEFF00210120FFF7AAFFB8E0AE
:1018D000F348844208D101210220FFF7A2FF002132
:1018E0000220FFF79EFFACE0EE48844208D10121C0
:1018F0000420FFF796FF00210420FFF792FFA0E0ED
:10190000E948844208D101210820FFF78AFF00211D
:101910000820FFF786FF94E0E448844208D10121C3
:101920001020FFF77EFF00211020FFF77AFF88E0EC
:10193000DF48844208D101212020FFF772FF0021F7
:101940002020FFF76EFF7CE0DA48844208D10121B5
:101950004014FFF759FF00216014FFF755FF70E0B6
:10196000D548844209D10121C804FFF74DFF002169
:101970004FF40020FFF748FF63E0D048844209D1CC
:1019800001210805FFF740FF00214FF48010FFF709
:101990003BFF56E0CA48844209D101214805FFF7C0
:1019A00033FF00214FF40010FFF72EFF49E0C54838
:1019B000844208D101214020FFF733FF002140205D
:1019C000FFF72FFF3DE0C048844208D1012180206D
:1019D000FFF727FF00218020FFF723FF31E0BB48FE
:1019E000844208D101218015FFF71BFF0021A015BB
:1019F000FFF717FF25E0B648844209D1012108040A
:101A0000FFF702FF00214FF48030FFF7FDFE18E0E2
:101A1000B048844209D101214804FFF7F5FE0021B6
:101A20004FF40030FFF7F0FE0BE0AB48844208D1E2
:101A300001218804FFF7E8FE00214FF48020FFF722
:101A4000E3FE10BD00220288944B98420ED0994BC1
:101A500098420BD0B0F1804F08D0914B984205D0FE
:101A6000904B984202D0904B984204D14FF68F731E
:101A70001A404B881A438D4B984207D08C4B9842A2
:101A800004D04FF6FF431A40CB881A4302808B885C
:101A900083850B880385814B98420BD0854B9842F8
:101AA00008D08B4B984205D08A4B984202D08A4B83
:101AB000984201D10B7A038601238382704770B567
:101AC000002400220023058C4FF6FE763540058465
:101AD000028C8388048B4FF68F752C40B51E2C40EA
:101AE0000D882C43751E2A400D892A434D882A43B0
:101AF0006A4DA8420BD06F4DA84208D0744DA84241
:101B000005D0744DA84202D0734DA84213D14FF6B0
:101B1000F7752A404D892A434FF6FB752A408D8878
:101B20002A434FF6FF652B404FF6FF552B408D891A
:101B30002B43CD892B4383800483CD888586028403
:101B400070BD70B5002400220023058C4FF6EF769F
:101B500035400584028C8388048B48F6FF752C4041
:101B60004FF6FF452C400D884FF6FF7606EA052517
:101B70002C434FF6DF752A400D8906EA05152A43E6
:101B80004D8806EA05152A43444DA84202D0494D26
:101B9000A8421DD14FF67F752A404D894FF6FF763A
:101BA00006EA05152A434FF6BF752A408D8806EAD6
:101BB00005152A434FF6FF352B404FF2FF752B409A
:101BC0008D8906EA85052B43CD8906EA85052B43D9
:101BD00083800483CD880587028470BD70B500249E
:101BE00000220023058C4FF6FF6635400584028CE9
:101BF0008388848B4FF68F752C404FF6FC752C40F4
:101C00000D882C434FF6FF552A400D894FF6FF767D
:101C100006EA05252A434D8806EA05252A431F4D75
:101C2000A84202D0234DA8421DD14FF2FF752A4091
:101C30004D894FF6FF7606EA05252A434FF6FF3514
:101C40002A408D8806EA05252A434EF6FF752B406B
:101C50004DF6FF752B408D8906EA05152B43CD897E
:101C600006EA05152B4383808483CD88858702840B
:101C700070BD70B5002200230024058C4EF6FF765F
:101C800035400584038C8488828B48F6FF752A4092
:101C90004FF6FF452A400D8820E00000002C01404F
:101CA0000004004000080040000C0040001000400C
:101CB0000014004000340140004C0140005001403D
:101CC0000054014000180040001C0040002000406B
:101CD0000040014000440140004801404FF6FF76BB
:101CE00006EA05252A434DF6FF752B400D8906EAC5
:101CF00005352B434D8806EA05352B43FA4DA8429E
:101D000002D0FA4DA84208D14BF6FF752C408D89C0
:101D10004FF6FF7606EA85152C4384808283CD88B2
:101D2000A0F84050038470BD828B4FF2FF331A40FD
:101D30008283828B4FF6FF7303EA01231A43828367
:101D40007047F0B50C461546002200210026078C8E
:101D50004EF6FF7C07EA0C070784828B018C4FF656
:101D6000FF7707EA043640F6FF473A404FF6FF7721
:101D700007EA05273A434FF6FF7707EA03373A4366
:101D8000D94FB8420ED0D94FB8420BD0B0F1804FE6
:101D900008D0D74FB84205D0D64FB84202D0D64F60
:101DA000B84206D14DF6FF77394046F480573943A3
:101DB00005E047F6FF57394044F4805739438283A2
:101DC0000184F0BD828B4FF6F3731A408283828BBD
:101DD0000A4382837047F0B50C4615460022002165
:101DE0000026078C4FF6FF6C07EA0C070784828BEE
:101DF000018C4FF6FF7707EA04264FF60C773A403E
:101E00004FF6FF7707EA03172F433A43B64FB8421E
:101E10000ED0B64FB8420BD0B0F1804F08D0B44FBF
:101E2000B84205D0B34FB84202D0B34FB84206D142
:101E30004FF6FF57394046F48077394305E04FF2BB
:101E4000FF57394044F48077394382830184F0BDE1
:101E5000028B4FF2FF331A400283028B4FF6FF735F
:101E600003EA01231A4302837047F0B50C46154676
:101E7000002200210026078C4FF6EF7C07EA0C07B2
:101E80000784028B018C4FF6FF7707EA041640F6B1
:101E9000FF473A404FF6FF7707EA03373A434FF6DA
:101EA000FF7707EA05273A438F4FB8420ED08F4F8E
:101EB000B8420BD0B0F1804F08D08D4FB84205D05A
:101EC0008C4FB84202D08C4FB84206D14FF6DF7724
:101ED000394046F01007394305E04FF65F77394047
:101EE00044F01007394302830184F0BD028B4FF6A2
:101EF000F3731A400283028B0A4302837047F0B5E2
:101F00000C46154600220021068C4FF6FE773E4017
:101F10000684028B018C4FF60C7632407E1C06EA5A
:101F200003162E433243704EB0420ED06F4EB04275
:101F30000BD0B0F1804F08D06D4EB04205D06D4E41
:101F4000B04202D06C4EB04206D14FF6FD76314021
:101F500044F00106314305E04FF6F576314044F098
:101F60000106314302830184F0BD70B505460C467D
:101F70005D4885420ED05D4885420BD0B5F1804F5B
:101F800008D05B48854205D05A48854202D05A485D
:101F9000854200D100E000BF208850B92389A28883
:101FA00061882846FFF7ABFFE1882846FFF79EFFD0
:101FB00025E0208804280AD12389A2886188284640
:101FC000FFF753FFE1882846FFF742FF17E020881C
:101FD00008280AD12389A28861882846FFF7FBFEDA
:101FE000E1882846FFF7EEFE09E02389A288618890
:101FF0002846FFF7A6FEE1882846FFF795FE70BD4C
:102000002DE9F04105460C4600260127608808B9F5
:10201000022600E00026A088012801D1022700E066
:1020200001272088A0B92389A28861882846FFF764
:1020300066FFE1882846FFF759FF23893A46314673
:102040002846FFF712FFE1882846FFF701FF13E05B
:102050002389A28861882846FFF707FFE188284680
:10206000FFF7F6FE23893A4631462846FFF747FF39
:10207000E1882846FFF73AFFBDE8F0810A884B88DF
:102080001A438B881A43CB881A430B891A434B890E
:102090001A438B891A43A0F8442070474FF6FF710A
:1020A000818000210180C180418001727047002140
:1020B000018041808180C180018141818181C18114
:1020C0007047002101804180012181800021C18071
:1020D000018170470021018041808180C1800181A0
:1020E0004181818170470000002C01400034014093
:1020F0000004004000080040000C004021B10288AC
:1021000042F00102028004E002884FF6FE731A409A
:102110000280704731B1B0F8442042F40042A0F888
:10212000442005E0B0F84420C2F30E02A0F8442099
:1021300070471AB183890B43838102E083898B4303
:10214000838170478182704741EA0203A0F84830DA
:1021500070471AB183890B43838102E083898B43E3
:102160008381704701894FF6F872114001817047F1
:102170000A46002101894FF68F73194011430181EE
:10218000704730B504460D4629462046FFF7F0FF5C
:10219000208940F00700208130BD2DE9F041044640
:1021A0000D4616461F46602D06D13B46012231469C
:1021B0002046FFF75AFE05E03B4601223146204605
:1021C000FFF79DFE29462046FFF7D2FF208940F009
:1021D00007002081BDE8F08130B50C46002101895F
:1021E000C9B24FF6FF7505EA032515432543294378
:1021F000018130BD2DE9F04105460E46174698464F
:10220000002443463A4631462846FFF7E5FF2C892D
:102210004FF6F870044044F007044FF68F70044006
:1022200044F070042C81BDE8F081F0B504460D4601
:1022300016461F463B46324629462046FFF7CCFF4E
:10224000208940F480402081F0BD01858282704762
:102250000A46002101884FF68F731940114301800F
:102260007047F0B50C4615461E460021002200239B
:102270000189028B038C4FF6F877394021434FF6E2
:10228000FC473A4040F201173A434FF6DD773B40B6
:102290004FF6FF7707EA06172F433B43018102837E
:1022A0000384F0BD0A460021018B4FF68F7319405D
:1022B0001143018370470A460021018B48F6FF73E2
:1022C00019404FF6FF7303EA022319430183704755
:1022D0000A460021818B4FF68F7319401143818389
:1022E00070470A460021818B48F6FF7319404FF66C
:1022F000FF7303EA022319438183704721B10288E7
:1023000042F08002028004E002884FF67F731A4098
:102310000280704721B1828842F00402828004E08A
:1023200082884FF6FB731A408280704721B1828801
:1023300042F00802828004E082884FF6F7731A4068
:102340008280704721B1828842F00102828004E0DD
:1023500082884FF6FE731A40828070470A46002139
:10236000018B4FF6F77319401143018370470A46FA
:102370000021018B4FF2FF7319404FF6FF7303EA00
:1023800002231943018370470A460021818B4FF6CF
:10239000F77319401143818370470A460021818BEE
:1023A0004FF2FF7319404FF6FF7303EA02231943FC
:1023B000818370470A460021018B4FF6FB73194059
:1023C0001143018370470A460021018B4FF6FF330A
:1023D00019404FF6FF7303EA022319430183704744
:1023E0000A460021818B4FF6FB731940114381830C
:1023F00070470A460021818B4FF6FF3319404FF694
:10240000FF7303EA02231943818370470A460021C0
:10241000018B4FF67F7319401143018370470A46C1
:102420000021018BC1F30E014FF6FF7303EA022373
:102430001943018370470A460021818B4FF67F7351
:1024400019401143818370470A460021818BC1F3F3
:102450000E014FF6FF7303EA02231943818370478D
:102460000A460021018C4FF6FD7319401143018487
:1024700070470A460021018C4FF6F773194011434B
:10248000018470470A460021018C4FF6DF73194022
:102490004FF6FF7303EA02131943018470470A469B
:1024A0000021018C4FF67F7319404FF6FF7303EA4A
:1024B00002131943018470470A460021018C4FF62C
:1024C000FF5319404FF6FF7303EA022319430184B7
:1024D00070470A460021018C4FF2FF7319404FF6F6
:1024E000FF7303EA02231943018470470A4600215F
:1024F000018C4DF6FF7319404FF6FF7303EA023368
:1025000019430184704730B5002301248C40A3B2E5
:10251000048C9C430484048C02FA01F5ADB22C4374
:10252000048430BD30B5002304248C40A3B2048C55
:102530009C430484048C02FA01F5ADB22C4304845C
:1025400030BD70B503460020002418461830012520
:102550008D40ACB21D8CA5431D8409B1082909D159
:1025600000EB6100056825F07005056005681543FE
:1025700005600EE00D1FC5F34E052844056825F4DF
:10258000E045056005684FF6FF7606EA022635430A
:10259000056070BD21B1028842F00202028004E0B1
:1025A00002884FF6FD731A400280704721B10288FD
:1025B00042F00402028004E002884FF6FB731A40E6
:1025C0000280704721B1828842F08002828004E05C
:1025D00082884FF67F731A408280704702884FF6D8
:1025E000F7731A40028002880A430280704782888B
:1025F0004FF68F731A40828082880A438280704728
:1026000002894FF6F8731A40028102890A43028157
:10261000704702894FF67F731A40028102890A438C
:102620000281704781847047818570478186704739
:102630000187704781877047A0F840107047028873
:102640004FF6FF431A40028002880A430280704717
:102650000146888E70470146088F70470146888F73
:1026600070470146B1F8400070470146888C7047BA
:102670000146088D704702460020138A0B400BB1BB
:10268000012000E000207047CA430282704730B545
:102690000246002000230024158A05EA01039589DB
:1026A00005EA010413B10CB1012000E0002030BDA7
:1026B000CA4302827047000010B56FF00400FEF7B5
:1026C0004EFD2E4800682E49B0FBF1F02D490870F0
:1026D0000846007800EB4001C1EBC0104FF6FF71D7
:1026E00001EAC0002849088010BD0146254A127839
:1026F0004A434FF0E0235A6100229A611A46126958
:1027000042F001021A6100BF4FF0E022106900F0B0
:1027100001021AB100F48032002AF5D04FF0E02215
:10272000126922F001024FF0E0231A6100229A613F
:1027300070470146144A12884A434FF0E0235A6119
:1027400000229A611A46126942F001021A6100BF22
:102750004FF0E022106900F001021AB100F480325B
:10276000002AF5D04FF0E022126922F001024FF06A
:10277000E0231A6100229A617047000010000020D7
:1027800000127A00600000206200002010B54FF4B3
:10279000A060FEF795FC10BD704770477047754606
:1027A00000F02CF8AE4605006946534620F00700BD
:1027B000854618B020B5FEF771FCBDE820404FF00B
:1027C00000064FF000074FF000084FF0000B21F01B
:1027D0000701AC46ACE8C009ACE8C009ACE8C009E8
:1027E000ACE8C0098D46704710B50446AFF30080D1
:1027F0002046BDE81040FDF7C0BC0000004870470F
:102800006400002001491820ABBEFEE7260002004C
:102810007047000021F00042A2F16052B2F5801F23
:1028200001F0004328BFD2F17F6C0BD95FEA001C96
:1028300043EAC20242EB507018BF704728BF20F035
:1028400001007047B2F5801FBCBF184670474FEAC1
:10285000410C1CF5001F02D2084600F06DBB70B59C
:1028600000F086F900000089FFF7F6BF4FF0004046
:10287000A0F580007047000010B591EA030F48BF33
:1028800083F0004300F1D081841A71EB030C05D270
:10289000121943EB0C03001B61EB0C01DFF824E180
:1028A0004FEA1154A4EB135C1EEA430F18BF9EEAD3
:1028B000445F73D023EA0E03DCF1200E21EA0451B9
:1028C00043F4801332D322FA0CFE10EB0E0023FAED
:1028D0000CFE41EB0E01CCF1200E03FA0EFE10EBC4
:1028E0000E0051F10001B1F5801FCCF1200E32D263
:1028F00001EB045112FA0EF2BDE8104058BF7047C8
:10290000401C38BF5FEA420218BF7047002814BF5E
:1029100020F0010041F100014FEA410313F5001FCF
:1029200038BF7047A1F1C04100F070B9012A43EBF4
:102930000302ACF1200CDCF11F0E32BF4FF0000E91
:1029400023FA0CF310EB030041EB0451B4EB115FDD
:10295000D0D0A1EB045101F5801149085FEA3000A5
:1029600001EB04510ED350F1000038BF12FA0EFEF5
:1029700008D1BDE81040C9E7401C38BF5FEA4202F9
:10298000CAD1C3E7BDE810404FEA410313F5001F69
:1029900038BF7047A1F1C04100F038B99EEA445FEA
:1029A00008D011EA5E0FBDE8104004BF01F00041FD
:1029B00000207047BDE8104070B500F0D9F800BFA6
:1029C00064FBBE3E0000E0FF10F0004248BF404202
:1029D000B0FA80F310FA03F10AD0C3F11D0303F536
:1029E00080634FEA415002EB035202EBD121704762
:1029F0004FF000007047B0FA80F310FA03F10AD0EC
:102A0000C3F11D0303F580634FEA41504FEA0352BF
:102A100002EBD12170474FF000007047DFF848C14A
:102A200070B51CEA111E1EBF1CEA13159EEA0C0F9E
:102A300095EA0C0F00F06F8081EA030423EA4C133F
:102A40004EEAD47E21EA4C1141F4801143F4801304
:102A5000AE44A1FB024CA0FB0365AEF17F7E3619AC
:102A600055EB0C05A1FB034C4CF10003A0FB021C31
:102A700016EB0C06654153F10003094218BF46F0FE
:102A8000010613F4007F0BD14FEA03314FEA053002
:102A9000340341EA155140EA16506FF003020AE090
:102AA0004FEAC3214FEAC520F40241EA555140EAFA
:102AB00056506FF0020202EB2E4201EB025585EAFE
:102AC000CE710AD05FEA440C18BF24F0004450F1E4
:102AD000000041F1000120EAD47040F2FE7C624522
:102AE00000D270BDA84214BF4FF080444FF0404464
:102AF000002E08BF0024BEF1806FA8BFA1F1C04125
:102B0000BDE8704080F282804FF0000001F1C041CA
:102B100001F0004170479EEA0C0F0CEA131518BF34
:102B200095EA0C0F06D04FF0000081EA030E0EF07C
:102B3000004170BD00F01CF88900013E00F007B8AC
:102B400000F009B84FEA430C5FEA5C5C08D081EA08
:102B5000030100F05BB84FEA410C5FEA5C5CF6D120
:102B60004FF00000014970470000FF070000F87FA8
:102B70000EF1020E2EF0030E5EF8046B364205D401
:102B8000012A43EB030515F5001F12D8012841EB7C
:102B9000010C1CF5001F0CD80ED14FEAD17C15F5A5
:102BA000001F0CEB4C0C0CF1020C08BF4CEBD37C5F
:102BB00004E04FF0080C01E04FEAD37C0CEB4C052D
:102BC00026FA05F606F00706B6F1040C06D20EEB5F
:102BD000860CBDE870404CF0010C6047DFE80CF05B
:102BE000090B02024FF000414FF00000A1F5002157
:102BF00070BD19461046012851EB010418BFD4F5E9
:102C0000001484BF002001F0004170BD0808A0F549
:102C100000114FEA3101704710B591EA030F48BF28
:102C200083F000433FF530AE841A71EB030C07D2FA
:102C300012198CF0004C43EB0C03001B61EB0C01F0
:102C4000DFF8A4E14FEA1154A4EB135C1EEA430F32
:102C500018BF9EEA445F00F0B08023EA6E03524240
:102C600021EA0451C3EB6E0338BF5B1EDCF1200E7A
:102C700025D322FA0CFE10EB0E0043FA0CFE41EBBA
:102C80000E01CCF1200E03FA0EFE10EB0E0051F1F6
:102C90000001CCF1200E29D412FA0EF201EB0451FE
:102CA000BDE8104058BF7047401C1CBFB2F1004F38
:102CB000704700280CBF491C20F00100704712EB40
:102CC000020E43EB030218BF4FF0010E4EEA420220
:102CD000ACF1200CDCF11E0E54D943FA0CFE10EBC3
:102CE0000E0051F1FF31CCF11E0ED5D50EF1010EC3
:102CF00012FA0EFE404141EB010101EB445C5FEA38
:102D00005C5C10D910EBDE7001EB045138BFBEF1F2
:102D1000004FBDE8104018BF704700280CBF491C89
:102D200020F00100704730D24FEAD42C11F5001189
:102D300024F400641BD0B1FA81F20B3AA41AA41E49
:102D4000D2F12003914030FA03F31943904001EB94
:102D5000CC71002C01EB0451BDE81040A8BF7047B6
:102D600001F1C0414FF0000001F000417047B0FA9E
:102D700080F310FA03F100D110BDE41A173C4805A6
:102D8000C90AE4E701EB045110BD491001EB0451FD
:102D9000BDE810404FEA300002E04FF000017047FC
:102DA0004A0008BF0042F8D0B2F5001F28BF7047A4
:102DB00001F000414FF0000070479EEA445F07D0E9
:102DC00011EA5E0FBDE8104004BF002100207047EB
:102DD000BDE8104070B5FFF7CBFE00BF40DFF63E08
:102DE00083F00041104670470000E0FF401058BFDC
:102DF000C0F14040491058BFC1F140418142EFF35A
:102E000000807047C10DD1F19E0206DB4FEA00231E
:102E100043F0004323FA02F07047004207D54FEA1F
:102E20004001B1F1FE4F02D24FF00000704710B5E3
:102E300000F03CF849922480002070476FEA20009F
:102E40007047000050EA010C00F113801CF5000FE0
:102E500058BFBCF5000F01D48842704707D710F562
:102E6000000F58BF11F5000F15D4884270478942F2
:102E700070471CF5000F04D5BCF5000FF7D5814253
:102E800070474FF0807C1CEB400F38BF1CEB410FAC
:102E900001D28142704710B500F008F89224490031
:102EA0004FF000504FF08051FFF7A0BF0EF1020E1F
:102EB0002EF0030E5EF8044B244204D44FEA410284
:102EC000B2F17F4F11D84FEA4003B3F17F4F0CD8D6
:102ED0000ED14FEAD07CB2F17F4F0CEB4C0C0CF1D1
:102EE000020C08BF4CEBD17C04E04FF0080C01E071
:102EF0004FEAD17C0CEB4C0324FA03F404F00704F2
:102F0000B4F1040C06D20EEB840CBDE810404CF07A
:102F1000010C6047DFE80CF0070802024FF00040A8
:102F2000A0F5800010BD0846420018BFD2F18072A3
:102F300088BF00F0004010BDFF2141EAD050C0051D
:102F4000704751EA000C00F113801CF5000F58BFC8
:102F5000BCF5000F01D48142704707D711F5000F6F
:102F600058BF10F5000F15D4814270478942704751
:102F70001CF5000F04D5BCF5000FF7D5884270474B
:102F80004FF0807C1CEB410F38BF1CEB400F01D28F
:102F90008842704780EA010081EA000180EA01006E
:102FA000FFF779BFC42F0008000000206400000074
:102FB0002801000828300008640000206406000092
:102FC00044010008010000000000000000000000B3
:102FD0000000000000A24A04000000000000000001
:102FE00001020304060708090000000100C0F9A45B
:102FF000B0999282F880908883C6A1868E000000E6
:1030000000000000000000000000000014000000AC
:10301000000000010203040102030406070809027C
:08302000040608000000000096
:04000005080000ED02
:00000001FF
